:020000040000FA
:0400000068EF04F0B1
:1006000000005DEC04F03FEC04F071EC04F076ECDB
:1006100004F0000E266E120E256E000E186E000EEF
:10062000176E1DEC04F017C027F018C028F027C083
:1006300017F028C018F025C019F026C01AF063EC96
:1006400003F017C027F018C028F027C017F028C003
:1006500018F0000E1A6E640E196E63EC03F017505A
:10066000300F52EC04F0000E1A6E0A0E196E27C0FD
:1006700017F028C018F063EC03F017C01FF018C083
:1006800020F0000E226E0A0E216EC5EC03F01F5002
:10069000300F52EC04F027C01FF028C020F0000EED
:1006A000226E0A0E216EC5EC03F01F50300F52EC83
:1006B00004F00A0E52EC04F00D0E52EC04F00DEFB3
:1006C00003F000EF00F0000E1C6E1ABE6CEF03F09A
:1006D0006AEF03F072EF03F0196C1A1ED8B01A2AF1
:1006E000010E1C6E18BE79EF03F077EF03F07FEF79
:1006F00003F0176C181ED8B0182A010E1C1A000E31
:100700001E6E000E1D6E19501A10D8B48AEF03F039
:100710008CEF03F0B4EF03F0010E1B6E94EF03F0C7
:10072000D89019361A361B2A1AAE99EF03F09BEFB0
:1007300003F090EF03F0D8901D361E361950175C69
:100740001A501858D8A0A7EF03F0A9EF03F0AEEFA6
:1007500003F01950175E1A50185A1D80D8901A329B
:1007600019321B2E9BEF03F01C50D8B4BAEF03F0E4
:10077000BCEF03F0C0EF03F01D6C1E1ED8B01E2AA4
:100780001DC017F01EC018F01200000E246E20BE0F
:10079000CEEF03F0CCEF03F0D4EF03F01F6C201E7C
:1007A000D8B0202A010E246E22BEDBEF03F0D9EF71
:1007B00003F0DFEF03F0216C221ED8B0222A215073
:1007C0002210D8B4E6EF03F0E8EF03F00CEF04F0EA
:1007D000010E236EF0EF03F0D89021362236232A43
:1007E00022AEF5EF03F0F7EF03F0ECEF03F021504A
:1007F0001F5C22502058D8A000EF04F002EF04F054
:1008000006EF04F021501F5E2250205AD890223269
:100810002132232EF7EF03F02450D8B412EF04F066
:1008200014EF04F018EF04F01F6C201ED8B0202A3B
:100830001FC01FF020C020F0120017C019F0194689
:100840001946C2501918C30B1918C26EC282C28051
:10085000C2B22DEF04F02FEF04F028EF04F0C350E4
:10086000C4CF19F01A6A19C01AF0196A19101B6E50
:100870001A501C6E1BC017F01CC018F01200000E9E
:10088000946E948C948EAC98B896AC94330EAF6EF4
:10089000AB8E9E989E9AAC8AAB889D989F989D8AB5
:1008A0009F8A1200176EACA258EF04F05AEF04F0C2
:1008B00053EF04F017C0ADFF120092680E0EC16E28
:1008C000C08EF80EC016000EC46E000EC36E12006D
:1008D00000EE01F0160EEE6AE806FDE1000101EF00
:1008E00003F0D08EF28EF28EF28C1200D38CD38A6B
:0408F000D398120087
:020000040020DA
:08000000FFFFFFFFFFFFFFFF00
:020000040030CA
:0E000000FF881F00FF8381FF0FC00FE00F403D
:00000001FF
